{
  "address": "0x91f020c259C119b10EaC5eB283e3CF829edCe1F3",
  "abi": [
    {
      "inputs": [
        {
          "internalType": "address",
          "name": "_capsuleCollection",
          "type": "address"
        }
      ],
      "stateMutability": "payable",
      "type": "constructor"
    },
    {
      "anonymous": false,
      "inputs": [
        {
          "indexed": false,
          "internalType": "uint8",
          "name": "version",
          "type": "uint8"
        }
      ],
      "name": "Initialized",
      "type": "event"
    },
    {
      "anonymous": false,
      "inputs": [
        {
          "indexed": false,
          "internalType": "bool",
          "name": "mintStatus",
          "type": "bool"
        }
      ],
      "name": "MintToggled",
      "type": "event"
    },
    {
      "anonymous": false,
      "inputs": [
        {
          "indexed": true,
          "internalType": "address",
          "name": "user",
          "type": "address"
        },
        {
          "indexed": true,
          "internalType": "uint256",
          "name": "id",
          "type": "uint256"
        },
        {
          "indexed": true,
          "internalType": "string",
          "name": "btcAddress",
          "type": "string"
        }
      ],
      "name": "OrdinaryOrangeBurnt",
      "type": "event"
    },
    {
      "anonymous": false,
      "inputs": [
        {
          "indexed": true,
          "internalType": "address",
          "name": "user",
          "type": "address"
        }
      ],
      "name": "OrdinaryOrangeMinted",
      "type": "event"
    },
    {
      "anonymous": false,
      "inputs": [
        {
          "indexed": true,
          "internalType": "address",
          "name": "previousGovernor",
          "type": "address"
        },
        {
          "indexed": true,
          "internalType": "address",
          "name": "proposedGovernor",
          "type": "address"
        }
      ],
      "name": "UpdatedGovernor",
      "type": "event"
    },
    {
      "inputs": [],
      "name": "CAPSULE_FACTORY",
      "outputs": [
        {
          "internalType": "contract ICapsuleFactory",
          "name": "",
          "type": "address"
        }
      ],
      "stateMutability": "view",
      "type": "function"
    },
    {
      "inputs": [],
      "name": "CAPSULE_MINTER",
      "outputs": [
        {
          "internalType": "contract ICapsuleMinter",
          "name": "",
          "type": "address"
        }
      ],
      "stateMutability": "view",
      "type": "function"
    },
    {
      "inputs": [],
      "name": "GIVEAWAY_MINT",
      "outputs": [
        {
          "internalType": "uint8",
          "name": "",
          "type": "uint8"
        }
      ],
      "stateMutability": "view",
      "type": "function"
    },
    {
      "inputs": [],
      "name": "OOMintFee",
      "outputs": [
        {
          "internalType": "uint256",
          "name": "",
          "type": "uint256"
        }
      ],
      "stateMutability": "view",
      "type": "function"
    },
    {
      "inputs": [],
      "name": "TEAM_MINT",
      "outputs": [
        {
          "internalType": "uint8",
          "name": "",
          "type": "uint8"
        }
      ],
      "stateMutability": "view",
      "type": "function"
    },
    {
      "inputs": [],
      "name": "acceptGovernorship",
      "outputs": [],
      "stateMutability": "nonpayable",
      "type": "function"
    },
    {
      "inputs": [
        {
          "internalType": "uint256",
          "name": "id_",
          "type": "uint256"
        },
        {
          "internalType": "string",
          "name": "btcAddress",
          "type": "string"
        }
      ],
      "name": "burn",
      "outputs": [],
      "stateMutability": "nonpayable",
      "type": "function"
    },
    {
      "inputs": [],
      "name": "capsuleCollection",
      "outputs": [
        {
          "internalType": "contract ICapsule",
          "name": "",
          "type": "address"
        }
      ],
      "stateMutability": "view",
      "type": "function"
    },
    {
      "inputs": [],
      "name": "claimCollectionBurnerRole",
      "outputs": [],
      "stateMutability": "nonpayable",
      "type": "function"
    },
    {
      "inputs": [],
      "name": "governor",
      "outputs": [
        {
          "internalType": "address",
          "name": "",
          "type": "address"
        }
      ],
      "stateMutability": "view",
      "type": "function"
    },
    {
      "inputs": [],
      "name": "governorMint",
      "outputs": [],
      "stateMutability": "payable",
      "type": "function"
    },
    {
      "inputs": [],
      "name": "isMintEnabled",
      "outputs": [
        {
          "internalType": "bool",
          "name": "",
          "type": "bool"
        }
      ],
      "stateMutability": "view",
      "type": "function"
    },
    {
      "inputs": [],
      "name": "lockCollectionCount",
      "outputs": [],
      "stateMutability": "nonpayable",
      "type": "function"
    },
    {
      "inputs": [],
      "name": "mint",
      "outputs": [],
      "stateMutability": "payable",
      "type": "function"
    },
    {
      "inputs": [
        {
          "internalType": "address",
          "name": "",
          "type": "address"
        },
        {
          "internalType": "address",
          "name": "",
          "type": "address"
        },
        {
          "internalType": "uint256",
          "name": "",
          "type": "uint256"
        },
        {
          "internalType": "bytes",
          "name": "",
          "type": "bytes"
        }
      ],
      "name": "onERC721Received",
      "outputs": [
        {
          "internalType": "bytes4",
          "name": "",
          "type": "bytes4"
        }
      ],
      "stateMutability": "pure",
      "type": "function"
    },
    {
      "inputs": [
        {
          "internalType": "address",
          "name": "_fromToken",
          "type": "address"
        }
      ],
      "name": "sweep",
      "outputs": [],
      "stateMutability": "nonpayable",
      "type": "function"
    },
    {
      "inputs": [],
      "name": "toggleMint",
      "outputs": [],
      "stateMutability": "nonpayable",
      "type": "function"
    },
    {
      "inputs": [
        {
          "internalType": "address",
          "name": "newOwner_",
          "type": "address"
        }
      ],
      "name": "transferCollectionOwnership",
      "outputs": [],
      "stateMutability": "nonpayable",
      "type": "function"
    },
    {
      "inputs": [
        {
          "internalType": "address",
          "name": "_proposedGovernor",
          "type": "address"
        }
      ],
      "name": "transferGovernorship",
      "outputs": [],
      "stateMutability": "nonpayable",
      "type": "function"
    },
    {
      "inputs": [
        {
          "internalType": "string",
          "name": "baseURI_",
          "type": "string"
        }
      ],
      "name": "updateBaseURI",
      "outputs": [],
      "stateMutability": "nonpayable",
      "type": "function"
    },
    {
      "inputs": [
        {
          "internalType": "address",
          "name": "metamaster_",
          "type": "address"
        }
      ],
      "name": "updateMetamaster",
      "outputs": [],
      "stateMutability": "nonpayable",
      "type": "function"
    },
    {
      "inputs": [
        {
          "internalType": "address",
          "name": "royaltyReceiver_",
          "type": "address"
        },
        {
          "internalType": "uint256",
          "name": "royaltyRate_",
          "type": "uint256"
        }
      ],
      "name": "updateRoyaltyConfig",
      "outputs": [],
      "stateMutability": "nonpayable",
      "type": "function"
    }
  ],
  "transactionHash": "0x24939742de41f5e28f91f401b79e3c74cfd940a2509f9a8ac87b3b555e27d384",
  "args": [
    "0x1b41F57D52FE6dB3a63bceB4E8845c0F9F31f859"
  ],
  "numDeployments": 2,
  "solcInputHash": "c1a277b33a914a44021aa2e1e02625d0",
  "bytecode": "0x60a0604052670de0b6b3a764000060335560405162002e4b38038062002e4b833981810160405281019062000035919062000193565b6000620000476200012160201b60201c565b905080600060026101000a81548173ffffffffffffffffffffffffffffffffffffffff021916908373ffffffffffffffffffffffffffffffffffffffff1602179055508073ffffffffffffffffffffffffffffffffffffffff16600073ffffffffffffffffffffffffffffffffffffffff167fd4459d5b8b913cab0244230fd9b1c08b6ceace7fe9230e60d0f74cbffdf849d060405160405180910390a3508073ffffffffffffffffffffffffffffffffffffffff1660808173ffffffffffffffffffffffffffffffffffffffff168152505050620001c5565b600033905090565b600080fd5b600073ffffffffffffffffffffffffffffffffffffffff82169050919050565b60006200015b826200012e565b9050919050565b6200016d816200014e565b81146200017957600080fd5b50565b6000815190506200018d8162000162565b92915050565b600060208284031215620001ac57620001ab62000129565b5b6000620001bc848285016200017c565b91505092915050565b608051612c1d6200022e600039600081816106c30152818161086601528181610a7a01528181610af301528181610bae01528181610c4901528181610d0801528181610e7101528181610f990152818161123f0152818161133f01526117720152612c1d6000f3fe6080604052600436106101355760003560e01c80637641e6f3116100ab578063b6aa515b1161006f578063b6aa515b146103a9578063c86f12d3146103d2578063cae86ac9146103fd578063d3dd5fe014610407578063f3b27bc31461041e578063fce126441461043557610135565b80637641e6f3146102d85780638d5cdc2614610301578063931688cb1461032a5780639d24863014610353578063b2ba4f9c1461037e57610135565b8063150b7a02116100fd578063150b7a02146101ec578063346de50a14610229578063447a9f831461025457806344ea49511461026b578063580320841461029657806363772b31146102c157610135565b806301681a621461013a57806304dad9351461016357806305c427b71461018c5780630c340a24146101b75780631249c58b146101e2575b600080fd5b34801561014657600080fd5b50610161600480360381019061015c9190611c6f565b61045e565b005b34801561016f57600080fd5b5061018a60048036038101906101859190611c6f565b61062a565b005b34801561019857600080fd5b506101a161074f565b6040516101ae9190611cfb565b60405180910390f35b3480156101c357600080fd5b506101cc610767565b6040516101d99190611d25565b60405180910390f35b6101ea61078d565b005b3480156101f857600080fd5b50610213600480360381019061020e9190611ddb565b61091b565b6040516102209190611e9e565b60405180910390f35b34801561023557600080fd5b5061023e610930565b60405161024b9190611ed4565b60405180910390f35b34801561026057600080fd5b50610269610943565b005b34801561027757600080fd5b50610280610aeb565b60405161028d9190611efe565b60405180910390f35b3480156102a257600080fd5b506102ab610af1565b6040516102b89190611f3a565b60405180910390f35b3480156102cd57600080fd5b506102d6610b15565b005b3480156102e457600080fd5b506102ff60048036038101906102fa9190612096565b610c3b565b005b34801561030d57600080fd5b50610328600480360381019061032391906120f2565b610dd8565b005b34801561033657600080fd5b50610351600480360381019061034c9190612132565b610f00565b005b34801561035f57600080fd5b50610368611025565b6040516103759190612197565b60405180910390f35b34801561038a57600080fd5b5061039361102a565b6040516103a091906121d3565b60405180910390f35b3480156103b557600080fd5b506103d060048036038101906103cb9190611c6f565b611042565b005b3480156103de57600080fd5b506103e761118c565b6040516103f49190612197565b60405180910390f35b610405611191565b005b34801561041357600080fd5b5061041c6113f4565b005b34801561042a57600080fd5b506104336114fd565b005b34801561044157600080fd5b5061045c60048036038101906104579190611c6f565b6116d9565b005b6104666117fe565b73ffffffffffffffffffffffffffffffffffffffff16600060029054906101000a900473ffffffffffffffffffffffffffffffffffffffff1673ffffffffffffffffffffffffffffffffffffffff16146104f5576040517f08c379a00000000000000000000000000000000000000000000000000000000081526004016104ec9061224b565b60405180910390fd5b600073ffffffffffffffffffffffffffffffffffffffff168173ffffffffffffffffffffffffffffffffffffffff160361055a57610555600060029054906101000a900473ffffffffffffffffffffffffffffffffffffffff1647611806565b610627565b60008173ffffffffffffffffffffffffffffffffffffffff166370a08231306040518263ffffffff1660e01b81526004016105959190611d25565b602060405180830381865afa1580156105b2573d6000803e3d6000fd5b505050506040513d601f19601f820116820180604052508101906105d69190612280565b9050610625600060029054906101000a900473ffffffffffffffffffffffffffffffffffffffff16828473ffffffffffffffffffffffffffffffffffffffff166118fa9092919063ffffffff16565b505b50565b6106326117fe565b73ffffffffffffffffffffffffffffffffffffffff16600060029054906101000a900473ffffffffffffffffffffffffffffffffffffffff1673ffffffffffffffffffffffffffffffffffffffff16146106c1576040517f08c379a00000000000000000000000000000000000000000000000000000000081526004016106b89061224b565b60405180910390fd5b7f000000000000000000000000000000000000000000000000000000000000000073ffffffffffffffffffffffffffffffffffffffff1663f2fde38b826040518263ffffffff1660e01b815260040161071a9190611d25565b600060405180830381600087803b15801561073457600080fd5b505af1158015610748573d6000803e3d6000fd5b5050505050565b734ced59c19f1f3a9eebd670f746b737acf504d1eb81565b600060029054906101000a900473ffffffffffffffffffffffffffffffffffffffff1681565b603460009054906101000a900460ff166107dc576040517f08c379a00000000000000000000000000000000000000000000000000000000081526004016107d3906122f9565b60405180910390fd5b6033543414610820576040517f08c379a000000000000000000000000000000000000000000000000000000000815260040161081790612365565b60405180910390fd5b600061082a6117fe565b905073b8cf4a28da322598fdb78a1406a61b72d6f6b39673ffffffffffffffffffffffffffffffffffffffff1663d7e954e466038d7ea4c680007f0000000000000000000000000000000000000000000000000000000000000000846040518463ffffffff1660e01b81526004016108a39291906123ab565b6000604051808303818588803b1580156108bc57600080fd5b505af11580156108d0573d6000803e3d6000fd5b50505050508073ffffffffffffffffffffffffffffffffffffffff167f21aec557fe1c218e78259203357e235779aa30e2a146ff9e877cb0be5be75f3260405160405180910390a250565b600063150b7a0260e01b905095945050505050565b603460009054906101000a900460ff1681565b61094b6117fe565b73ffffffffffffffffffffffffffffffffffffffff16600060029054906101000a900473ffffffffffffffffffffffffffffffffffffffff1673ffffffffffffffffffffffffffffffffffffffff16146109da576040517f08c379a00000000000000000000000000000000000000000000000000000000081526004016109d19061224b565b60405180910390fd5b73b8cf4a28da322598fdb78a1406a61b72d6f6b39673ffffffffffffffffffffffffffffffffffffffff1663c45a01556040518163ffffffff1660e01b8152600401602060405180830381865afa158015610a39573d6000803e3d6000fd5b505050506040513d601f19601f82011682018060405250810190610a5d9190612425565b73ffffffffffffffffffffffffffffffffffffffff166377394a0b7f0000000000000000000000000000000000000000000000000000000000000000306040518363ffffffff1660e01b8152600401610ab7929190612452565b600060405180830381600087803b158015610ad157600080fd5b505af1158015610ae5573d6000803e3d6000fd5b50505050565b60335481565b7f000000000000000000000000000000000000000000000000000000000000000081565b610b1d6117fe565b73ffffffffffffffffffffffffffffffffffffffff16600060029054906101000a900473ffffffffffffffffffffffffffffffffffffffff1673ffffffffffffffffffffffffffffffffffffffff1614610bac576040517f08c379a0000000000000000000000000000000000000000000000000000000008152600401610ba39061224b565b60405180910390fd5b7f000000000000000000000000000000000000000000000000000000000000000073ffffffffffffffffffffffffffffffffffffffff166323249fd96101006040518263ffffffff1660e01b8152600401610c0791906124b6565b600060405180830381600087803b158015610c2157600080fd5b505af1158015610c35573d6000803e3d6000fd5b50505050565b6000610c456117fe565b90507f000000000000000000000000000000000000000000000000000000000000000073ffffffffffffffffffffffffffffffffffffffff166342842e0e8230866040518463ffffffff1660e01b8152600401610ca4939291906124d1565b600060405180830381600087803b158015610cbe57600080fd5b505af1158015610cd2573d6000803e3d6000fd5b5050505073b8cf4a28da322598fdb78a1406a61b72d6f6b39673ffffffffffffffffffffffffffffffffffffffff1663aee6a2fe7f000000000000000000000000000000000000000000000000000000000000000085306040518463ffffffff1660e01b8152600401610d4793929190612508565b600060405180830381600087803b158015610d6157600080fd5b505af1158015610d75573d6000803e3d6000fd5b5050505081604051610d8791906125b9565b6040518091039020838273ffffffffffffffffffffffffffffffffffffffff167f25371875ba959ab9f2b46353b3767d7e9f16f0c7958f87995f4fd8b490da715460405160405180910390a4505050565b610de06117fe565b73ffffffffffffffffffffffffffffffffffffffff16600060029054906101000a900473ffffffffffffffffffffffffffffffffffffffff1673ffffffffffffffffffffffffffffffffffffffff1614610e6f576040517f08c379a0000000000000000000000000000000000000000000000000000000008152600401610e669061224b565b60405180910390fd5b7f000000000000000000000000000000000000000000000000000000000000000073ffffffffffffffffffffffffffffffffffffffff16638d5cdc2683836040518363ffffffff1660e01b8152600401610eca9291906125d0565b600060405180830381600087803b158015610ee457600080fd5b505af1158015610ef8573d6000803e3d6000fd5b505050505050565b610f086117fe565b73ffffffffffffffffffffffffffffffffffffffff16600060029054906101000a900473ffffffffffffffffffffffffffffffffffffffff1673ffffffffffffffffffffffffffffffffffffffff1614610f97576040517f08c379a0000000000000000000000000000000000000000000000000000000008152600401610f8e9061224b565b60405180910390fd5b7f000000000000000000000000000000000000000000000000000000000000000073ffffffffffffffffffffffffffffffffffffffff166355f804b3826040518263ffffffff1660e01b8152600401610ff09190612632565b600060405180830381600087803b15801561100a57600080fd5b505af115801561101e573d6000803e3d6000fd5b5050505050565b601081565b73b8cf4a28da322598fdb78a1406a61b72d6f6b39681565b61104a6117fe565b73ffffffffffffffffffffffffffffffffffffffff16600060029054906101000a900473ffffffffffffffffffffffffffffffffffffffff1673ffffffffffffffffffffffffffffffffffffffff16146110d9576040517f08c379a00000000000000000000000000000000000000000000000000000000081526004016110d09061224b565b60405180910390fd5b600073ffffffffffffffffffffffffffffffffffffffff168173ffffffffffffffffffffffffffffffffffffffff1603611148576040517f08c379a000000000000000000000000000000000000000000000000000000000815260040161113f906126a0565b60405180910390fd5b80600160006101000a81548173ffffffffffffffffffffffffffffffffffffffff021916908373ffffffffffffffffffffffffffffffffffffffff16021790555050565b601081565b600061119b6117fe565b9050600060029054906101000a900473ffffffffffffffffffffffffffffffffffffffff1673ffffffffffffffffffffffffffffffffffffffff168173ffffffffffffffffffffffffffffffffffffffff161461122d576040517f08c379a00000000000000000000000000000000000000000000000000000000081526004016112249061270c565b60405180910390fd5b60108061123a919061275b565b60ff167f000000000000000000000000000000000000000000000000000000000000000073ffffffffffffffffffffffffffffffffffffffff166361bc221a6040518163ffffffff1660e01b8152600401602060405180830381865afa1580156112a8573d6000803e3d6000fd5b505050506040513d601f19601f820116820180604052508101906112cc9190612280565b1061130c576040517f08c379a0000000000000000000000000000000000000000000000000000000008152600401611303906127de565b60405180910390fd5b73b8cf4a28da322598fdb78a1406a61b72d6f6b39673ffffffffffffffffffffffffffffffffffffffff1663d7e954e4347f0000000000000000000000000000000000000000000000000000000000000000846040518463ffffffff1660e01b815260040161137c9291906123ab565b6000604051808303818588803b15801561139557600080fd5b505af11580156113a9573d6000803e3d6000fd5b50505050508073ffffffffffffffffffffffffffffffffffffffff167f21aec557fe1c218e78259203357e235779aa30e2a146ff9e877cb0be5be75f3260405160405180910390a250565b6113fc6117fe565b73ffffffffffffffffffffffffffffffffffffffff16600060029054906101000a900473ffffffffffffffffffffffffffffffffffffffff1673ffffffffffffffffffffffffffffffffffffffff161461148b576040517f08c379a00000000000000000000000000000000000000000000000000000000081526004016114829061224b565b60405180910390fd5b603460009054906101000a900460ff1615603460006101000a81548160ff0219169083151502179055507f8ba9af8fef251a59a57bb383a518ff12b3c2770c23cf0ab9a59a9e2390e08f43603460009054906101000a900460ff166040516114f39190611ed4565b60405180910390a1565b6115056117fe565b73ffffffffffffffffffffffffffffffffffffffff16600160009054906101000a900473ffffffffffffffffffffffffffffffffffffffff1673ffffffffffffffffffffffffffffffffffffffff1614611594576040517f08c379a000000000000000000000000000000000000000000000000000000000815260040161158b9061284a565b60405180910390fd5b600160009054906101000a900473ffffffffffffffffffffffffffffffffffffffff1673ffffffffffffffffffffffffffffffffffffffff16600060029054906101000a900473ffffffffffffffffffffffffffffffffffffffff1673ffffffffffffffffffffffffffffffffffffffff167fd4459d5b8b913cab0244230fd9b1c08b6ceace7fe9230e60d0f74cbffdf849d060405160405180910390a3600160009054906101000a900473ffffffffffffffffffffffffffffffffffffffff16600060026101000a81548173ffffffffffffffffffffffffffffffffffffffff021916908373ffffffffffffffffffffffffffffffffffffffff1602179055506000600160006101000a81548173ffffffffffffffffffffffffffffffffffffffff021916908373ffffffffffffffffffffffffffffffffffffffff160217905550565b6116e16117fe565b73ffffffffffffffffffffffffffffffffffffffff16600060029054906101000a900473ffffffffffffffffffffffffffffffffffffffff1673ffffffffffffffffffffffffffffffffffffffff1614611770576040517f08c379a00000000000000000000000000000000000000000000000000000000081526004016117679061224b565b60405180910390fd5b7f000000000000000000000000000000000000000000000000000000000000000073ffffffffffffffffffffffffffffffffffffffff16631b86f18c826040518263ffffffff1660e01b81526004016117c99190611d25565b600060405180830381600087803b1580156117e357600080fd5b505af11580156117f7573d6000803e3d6000fd5b5050505050565b600033905090565b80471015611849576040517f08c379a0000000000000000000000000000000000000000000000000000000008152600401611840906128b6565b60405180910390fd5b60008273ffffffffffffffffffffffffffffffffffffffff168260405161186f90612904565b60006040518083038185875af1925050503d80600081146118ac576040519150601f19603f3d011682016040523d82523d6000602084013e6118b1565b606091505b50509050806118f5576040517f08c379a00000000000000000000000000000000000000000000000000000000081526004016118ec9061298b565b60405180910390fd5b505050565b61197b8363a9059cbb60e01b84846040516024016119199291906125d0565b604051602081830303815290604052907bffffffffffffffffffffffffffffffffffffffffffffffffffffffff19166020820180517bffffffffffffffffffffffffffffffffffffffffffffffffffffffff8381831617835250505050611980565b505050565b60006119e2826040518060400160405280602081526020017f5361666545524332303a206c6f772d6c6576656c2063616c6c206661696c65648152508573ffffffffffffffffffffffffffffffffffffffff16611a479092919063ffffffff16565b9050600081511115611a425780806020019051810190611a0291906129d7565b611a41576040517f08c379a0000000000000000000000000000000000000000000000000000000008152600401611a3890612a76565b60405180910390fd5b5b505050565b6060611a568484600085611a5f565b90509392505050565b606082471015611aa4576040517f08c379a0000000000000000000000000000000000000000000000000000000008152600401611a9b90612b08565b60405180910390fd5b611aad85611b73565b611aec576040517f08c379a0000000000000000000000000000000000000000000000000000000008152600401611ae390612b74565b60405180910390fd5b6000808673ffffffffffffffffffffffffffffffffffffffff168587604051611b159190612bd0565b60006040518083038185875af1925050503d8060008114611b52576040519150601f19603f3d011682016040523d82523d6000602084013e611b57565b606091505b5091509150611b67828286611b96565b92505050949350505050565b6000808273ffffffffffffffffffffffffffffffffffffffff163b119050919050565b60608315611ba657829050611bf6565b600083511115611bb95782518084602001fd5b816040517f08c379a0000000000000000000000000000000000000000000000000000000008152600401611bed9190612632565b60405180910390fd5b9392505050565b6000604051905090565b600080fd5b600080fd5b600073ffffffffffffffffffffffffffffffffffffffff82169050919050565b6000611c3c82611c11565b9050919050565b611c4c81611c31565b8114611c5757600080fd5b50565b600081359050611c6981611c43565b92915050565b600060208284031215611c8557611c84611c07565b5b6000611c9384828501611c5a565b91505092915050565b6000819050919050565b6000611cc1611cbc611cb784611c11565b611c9c565b611c11565b9050919050565b6000611cd382611ca6565b9050919050565b6000611ce582611cc8565b9050919050565b611cf581611cda565b82525050565b6000602082019050611d106000830184611cec565b92915050565b611d1f81611c31565b82525050565b6000602082019050611d3a6000830184611d16565b92915050565b6000819050919050565b611d5381611d40565b8114611d5e57600080fd5b50565b600081359050611d7081611d4a565b92915050565b600080fd5b600080fd5b600080fd5b60008083601f840112611d9b57611d9a611d76565b5b8235905067ffffffffffffffff811115611db857611db7611d7b565b5b602083019150836001820283011115611dd457611dd3611d80565b5b9250929050565b600080600080600060808688031215611df757611df6611c07565b5b6000611e0588828901611c5a565b9550506020611e1688828901611c5a565b9450506040611e2788828901611d61565b935050606086013567ffffffffffffffff811115611e4857611e47611c0c565b5b611e5488828901611d85565b92509250509295509295909350565b60007fffffffff0000000000000000000000000000000000000000000000000000000082169050919050565b611e9881611e63565b82525050565b6000602082019050611eb36000830184611e8f565b92915050565b60008115159050919050565b611ece81611eb9565b82525050565b6000602082019050611ee96000830184611ec5565b92915050565b611ef881611d40565b82525050565b6000602082019050611f136000830184611eef565b92915050565b6000611f2482611cc8565b9050919050565b611f3481611f19565b82525050565b6000602082019050611f4f6000830184611f2b565b92915050565b600080fd5b6000601f19601f8301169050919050565b7f4e487b7100000000000000000000000000000000000000000000000000000000600052604160045260246000fd5b611fa382611f5a565b810181811067ffffffffffffffff82111715611fc257611fc1611f6b565b5b80604052505050565b6000611fd5611bfd565b9050611fe18282611f9a565b919050565b600067ffffffffffffffff82111561200157612000611f6b565b5b61200a82611f5a565b9050602081019050919050565b82818337600083830152505050565b600061203961203484611fe6565b611fcb565b90508281526020810184848401111561205557612054611f55565b5b612060848285612017565b509392505050565b600082601f83011261207d5761207c611d76565b5b813561208d848260208601612026565b91505092915050565b600080604083850312156120ad576120ac611c07565b5b60006120bb85828601611d61565b925050602083013567ffffffffffffffff8111156120dc576120db611c0c565b5b6120e885828601612068565b9150509250929050565b6000806040838503121561210957612108611c07565b5b600061211785828601611c5a565b925050602061212885828601611d61565b9150509250929050565b60006020828403121561214857612147611c07565b5b600082013567ffffffffffffffff81111561216657612165611c0c565b5b61217284828501612068565b91505092915050565b600060ff82169050919050565b6121918161217b565b82525050565b60006020820190506121ac6000830184612188565b92915050565b60006121bd82611cc8565b9050919050565b6121cd816121b2565b82525050565b60006020820190506121e860008301846121c4565b92915050565b600082825260208201905092915050565b7f6e6f7420676f7665726e6f720000000000000000000000000000000000000000600082015250565b6000612235600c836121ee565b9150612240826121ff565b602082019050919050565b6000602082019050818103600083015261226481612228565b9050919050565b60008151905061227a81611d4a565b92915050565b60006020828403121561229657612295611c07565b5b60006122a48482850161226b565b91505092915050565b7f6d696e742d69732d6e6f742d656e61626c656400000000000000000000000000600082015250565b60006122e36013836121ee565b91506122ee826122ad565b602082019050919050565b60006020820190508181036000830152612312816122d6565b9050919050565b7f77726f6e672d6d696e742d6665652d7061696400000000000000000000000000600082015250565b600061234f6013836121ee565b915061235a82612319565b602082019050919050565b6000602082019050818103600083015261237e81612342565b9050919050565b50565b60006123956000836121ee565b91506123a082612385565b600082019050919050565b60006060820190506123c06000830185611d16565b81810360208301526123d181612388565b90506123e06040830184611d16565b9392505050565b60006123f282611c31565b9050919050565b612402816123e7565b811461240d57600080fd5b50565b60008151905061241f816123f9565b92915050565b60006020828403121561243b5761243a611c07565b5b600061244984828501612410565b91505092915050565b60006040820190506124676000830185611d16565b6124746020830184611d16565b9392505050565b6000819050919050565b60006124a061249b6124968461247b565b611c9c565b611d40565b9050919050565b6124b081612485565b82525050565b60006020820190506124cb60008301846124a7565b92915050565b60006060820190506124e66000830186611d16565b6124f36020830185611d16565b6125006040830184611eef565b949350505050565b600060608201905061251d6000830186611d16565b61252a6020830185611eef565b6125376040830184611d16565b949350505050565b600081519050919050565b600081905092915050565b60005b83811015612573578082015181840152602081019050612558565b83811115612582576000848401525b50505050565b60006125938261253f565b61259d818561254a565b93506125ad818560208601612555565b80840191505092915050565b60006125c58284612588565b915081905092915050565b60006040820190506125e56000830185611d16565b6125f26020830184611eef565b9392505050565b60006126048261253f565b61260e81856121ee565b935061261e818560208601612555565b61262781611f5a565b840191505092915050565b6000602082019050818103600083015261264c81846125f9565b905092915050565b7f696e76616c69642070726f706f73656420676f7665726e6f7200000000000000600082015250565b600061268a6019836121ee565b915061269582612654565b602082019050919050565b600060208201905081810360008301526126b98161267d565b9050919050565b7f6e6f742d676f7665726e6f720000000000000000000000000000000000000000600082015250565b60006126f6600c836121ee565b9150612701826126c0565b602082019050919050565b60006020820190508181036000830152612725816126e9565b9050919050565b7f4e487b7100000000000000000000000000000000000000000000000000000000600052601160045260246000fd5b60006127668261217b565b91506127718361217b565b92508260ff038211156127875761278661272c565b5b828201905092915050565b7f676f7665726e6f722d6d696e742d706572696f642d6f76657200000000000000600082015250565b60006127c86019836121ee565b91506127d382612792565b602082019050919050565b600060208201905081810360008301526127f7816127bb565b9050919050565b7f6e6f74207468652070726f706f73656420676f7665726e6f7200000000000000600082015250565b60006128346019836121ee565b915061283f826127fe565b602082019050919050565b6000602082019050818103600083015261286381612827565b9050919050565b7f416464726573733a20696e73756666696369656e742062616c616e6365000000600082015250565b60006128a0601d836121ee565b91506128ab8261286a565b602082019050919050565b600060208201905081810360008301526128cf81612893565b9050919050565b600081905092915050565b60006128ee6000836128d6565b91506128f982612385565b600082019050919050565b600061290f826128e1565b9150819050919050565b7f416464726573733a20756e61626c6520746f2073656e642076616c75652c207260008201527f6563697069656e74206d61792068617665207265766572746564000000000000602082015250565b6000612975603a836121ee565b915061298082612919565b604082019050919050565b600060208201905081810360008301526129a481612968565b9050919050565b6129b481611eb9565b81146129bf57600080fd5b50565b6000815190506129d1816129ab565b92915050565b6000602082840312156129ed576129ec611c07565b5b60006129fb848285016129c2565b91505092915050565b7f5361666545524332303a204552433230206f7065726174696f6e20646964206e60008201527f6f74207375636365656400000000000000000000000000000000000000000000602082015250565b6000612a60602a836121ee565b9150612a6b82612a04565b604082019050919050565b60006020820190508181036000830152612a8f81612a53565b9050919050565b7f416464726573733a20696e73756666696369656e742062616c616e636520666f60008201527f722063616c6c0000000000000000000000000000000000000000000000000000602082015250565b6000612af26026836121ee565b9150612afd82612a96565b604082019050919050565b60006020820190508181036000830152612b2181612ae5565b9050919050565b7f416464726573733a2063616c6c20746f206e6f6e2d636f6e7472616374000000600082015250565b6000612b5e601d836121ee565b9150612b6982612b28565b602082019050919050565b60006020820190508181036000830152612b8d81612b51565b9050919050565b600081519050919050565b6000612baa82612b94565b612bb481856128d6565b9350612bc4818560208601612555565b80840191505092915050565b6000612bdc8284612b9f565b91508190509291505056fea2646970667358221220bad0bdcf5018a0d9401e1dc2c96e4a891e16f6a693fc83141e0aa5443d32382664736f6c634300080f0033",
  "devdoc": {
    "kind": "dev",
    "methods": {
      "acceptGovernorship()": {
        "details": "Allows new governor to accept governorship of the contract."
      },
      "burn(uint256,string)": {
        "params": {
          "btcAddress": "the address on Bitcoin which will receive the corresponding OO",
          "id_": "OO id to burn"
        }
      },
      "onERC721Received(address,address,uint256,bytes)": {
        "details": "This function enables this contract to receive ERC721 tokens"
      },
      "sweep(address)": {
        "params": {
          "_fromToken": "token address to sweep"
        }
      },
      "transferCollectionOwnership(address)": {
        "params": {
          "newOwner_": "Address of new owner"
        }
      },
      "transferGovernorship(address)": {
        "details": "Transfers governorship of the contract to a new account (`proposedGovernor`). Can only be called by the current governor."
      },
      "updateBaseURI(string)": {
        "params": {
          "baseURI_": "New baseURI string"
        }
      },
      "updateMetamaster(address)": {
        "params": {
          "metamaster_": "Address of new metamaster"
        }
      },
      "updateRoyaltyConfig(address,uint256)": {
        "params": {
          "royaltyRate_": "Royalty rate in Basis Points. ie. 100 = 1%, 10_000 = 100%",
          "royaltyReceiver_": "Address of royalty receiver"
        }
      }
    },
    "title": "OrdinaryOranges",
    "version": 1
  },
  "userdoc": {
    "kind": "user",
    "methods": {
      "OOMintFee()": {
        "notice": "Mint Fee"
      },
      "TEAM_MINT()": {
        "notice": "Team and giveaway mints"
      },
      "burn(uint256,string)": {
        "notice": "Burn an OO"
      },
      "claimCollectionBurnerRole()": {
        "notice": "Update collection burner. Add self address as collection burner for OO"
      },
      "governorMint()": {
        "notice": "Governor Mint"
      },
      "isMintEnabled()": {
        "notice": "Flag indicating whether the OO mint is enabled."
      },
      "lockCollectionCount()": {
        "notice": "Lock collection at 256 max count"
      },
      "mint()": {
        "notice": "Mint an Ordinary Orange to caller address"
      },
      "sweep(address)": {
        "notice": "sweep given token to governor of strategy"
      },
      "toggleMint()": {
        "notice": "onlyGovernor:: Toggle minting status of the Ordinary Oranges"
      },
      "transferCollectionOwnership(address)": {
        "notice": "onlyGovernor:: Transfer ownership of the Ordinary Oranges collection"
      },
      "updateBaseURI(string)": {
        "notice": "onlyGovernor:: Set the collection baseURI"
      },
      "updateMetamaster(address)": {
        "notice": "onlyGovernor:: Transfer metamaster of the Ordinary Oranges collection"
      },
      "updateRoyaltyConfig(address,uint256)": {
        "notice": "onlyGovernor:: Update royalty receiver and rate in Ordinary Oranges collection"
      }
    },
    "version": 1
  },
  "storageLayout": {
    "storage": [
      {
        "astId": 25,
        "contract": "contracts/OrdinaryOranges.sol:OrdinaryOranges",
        "label": "_initialized",
        "offset": 0,
        "slot": "0",
        "type": "t_uint8"
      },
      {
        "astId": 28,
        "contract": "contracts/OrdinaryOranges.sol:OrdinaryOranges",
        "label": "_initializing",
        "offset": 1,
        "slot": "0",
        "type": "t_bool"
      },
      {
        "astId": 1432,
        "contract": "contracts/OrdinaryOranges.sol:OrdinaryOranges",
        "label": "governor",
        "offset": 2,
        "slot": "0",
        "type": "t_address"
      },
      {
        "astId": 1434,
        "contract": "contracts/OrdinaryOranges.sol:OrdinaryOranges",
        "label": "proposedGovernor",
        "offset": 0,
        "slot": "1",
        "type": "t_address"
      },
      {
        "astId": 1556,
        "contract": "contracts/OrdinaryOranges.sol:OrdinaryOranges",
        "label": "__gap",
        "offset": 0,
        "slot": "2",
        "type": "t_array(t_uint256)49_storage"
      },
      {
        "astId": 1070,
        "contract": "contracts/OrdinaryOranges.sol:OrdinaryOranges",
        "label": "OOMintFee",
        "offset": 0,
        "slot": "51",
        "type": "t_uint256"
      },
      {
        "astId": 1073,
        "contract": "contracts/OrdinaryOranges.sol:OrdinaryOranges",
        "label": "isMintEnabled",
        "offset": 0,
        "slot": "52",
        "type": "t_bool"
      }
    ],
    "types": {
      "t_address": {
        "encoding": "inplace",
        "label": "address",
        "numberOfBytes": "20"
      },
      "t_array(t_uint256)49_storage": {
        "base": "t_uint256",
        "encoding": "inplace",
        "label": "uint256[49]",
        "numberOfBytes": "1568"
      },
      "t_bool": {
        "encoding": "inplace",
        "label": "bool",
        "numberOfBytes": "1"
      },
      "t_uint256": {
        "encoding": "inplace",
        "label": "uint256",
        "numberOfBytes": "32"
      },
      "t_uint8": {
        "encoding": "inplace",
        "label": "uint8",
        "numberOfBytes": "1"
      }
    }
  }
}