{
  "address": "0xde2aA3A3422B64e31e0d39fbe8d9095F386B1089",
  "abi": [
    {
      "inputs": [
        {
          "internalType": "address",
          "name": "_capsuleCollection",
          "type": "address"
        }
      ],
      "stateMutability": "payable",
      "type": "constructor"
    },
    {
      "anonymous": false,
      "inputs": [
        {
          "indexed": false,
          "internalType": "uint8",
          "name": "version",
          "type": "uint8"
        }
      ],
      "name": "Initialized",
      "type": "event"
    },
    {
      "anonymous": false,
      "inputs": [
        {
          "indexed": false,
          "internalType": "bool",
          "name": "mintStatus",
          "type": "bool"
        }
      ],
      "name": "MintToggled",
      "type": "event"
    },
    {
      "anonymous": false,
      "inputs": [
        {
          "indexed": true,
          "internalType": "address",
          "name": "user",
          "type": "address"
        },
        {
          "indexed": true,
          "internalType": "uint256",
          "name": "id",
          "type": "uint256"
        },
        {
          "indexed": true,
          "internalType": "string",
          "name": "btcAddress",
          "type": "string"
        }
      ],
      "name": "OrdinaryOrangeBurnt",
      "type": "event"
    },
    {
      "anonymous": false,
      "inputs": [
        {
          "indexed": true,
          "internalType": "address",
          "name": "user",
          "type": "address"
        }
      ],
      "name": "OrdinaryOrangeMinted",
      "type": "event"
    },
    {
      "anonymous": false,
      "inputs": [
        {
          "indexed": true,
          "internalType": "address",
          "name": "previousGovernor",
          "type": "address"
        },
        {
          "indexed": true,
          "internalType": "address",
          "name": "proposedGovernor",
          "type": "address"
        }
      ],
      "name": "UpdatedGovernor",
      "type": "event"
    },
    {
      "inputs": [],
      "name": "CAPSULE_FACTORY",
      "outputs": [
        {
          "internalType": "contract ICapsuleFactory",
          "name": "",
          "type": "address"
        }
      ],
      "stateMutability": "view",
      "type": "function"
    },
    {
      "inputs": [],
      "name": "CAPSULE_MINTER",
      "outputs": [
        {
          "internalType": "contract ICapsuleMinter",
          "name": "",
          "type": "address"
        }
      ],
      "stateMutability": "view",
      "type": "function"
    },
    {
      "inputs": [],
      "name": "GIVEAWAY_MINT",
      "outputs": [
        {
          "internalType": "uint8",
          "name": "",
          "type": "uint8"
        }
      ],
      "stateMutability": "view",
      "type": "function"
    },
    {
      "inputs": [],
      "name": "OOMintFee",
      "outputs": [
        {
          "internalType": "uint256",
          "name": "",
          "type": "uint256"
        }
      ],
      "stateMutability": "view",
      "type": "function"
    },
    {
      "inputs": [],
      "name": "TEAM_MINT",
      "outputs": [
        {
          "internalType": "uint8",
          "name": "",
          "type": "uint8"
        }
      ],
      "stateMutability": "view",
      "type": "function"
    },
    {
      "inputs": [],
      "name": "acceptGovernorship",
      "outputs": [],
      "stateMutability": "nonpayable",
      "type": "function"
    },
    {
      "inputs": [
        {
          "internalType": "uint256",
          "name": "id_",
          "type": "uint256"
        },
        {
          "internalType": "string",
          "name": "btcAddress",
          "type": "string"
        }
      ],
      "name": "burn",
      "outputs": [],
      "stateMutability": "nonpayable",
      "type": "function"
    },
    {
      "inputs": [],
      "name": "capsuleCollection",
      "outputs": [
        {
          "internalType": "contract ICapsule",
          "name": "",
          "type": "address"
        }
      ],
      "stateMutability": "view",
      "type": "function"
    },
    {
      "inputs": [],
      "name": "claimCollectionBurnerRole",
      "outputs": [],
      "stateMutability": "nonpayable",
      "type": "function"
    },
    {
      "inputs": [],
      "name": "governor",
      "outputs": [
        {
          "internalType": "address",
          "name": "",
          "type": "address"
        }
      ],
      "stateMutability": "view",
      "type": "function"
    },
    {
      "inputs": [],
      "name": "governorMint",
      "outputs": [],
      "stateMutability": "payable",
      "type": "function"
    },
    {
      "inputs": [],
      "name": "isMintEnabled",
      "outputs": [
        {
          "internalType": "bool",
          "name": "",
          "type": "bool"
        }
      ],
      "stateMutability": "view",
      "type": "function"
    },
    {
      "inputs": [],
      "name": "mint",
      "outputs": [],
      "stateMutability": "payable",
      "type": "function"
    },
    {
      "inputs": [
        {
          "internalType": "address",
          "name": "",
          "type": "address"
        },
        {
          "internalType": "address",
          "name": "",
          "type": "address"
        },
        {
          "internalType": "uint256",
          "name": "",
          "type": "uint256"
        },
        {
          "internalType": "bytes",
          "name": "",
          "type": "bytes"
        }
      ],
      "name": "onERC721Received",
      "outputs": [
        {
          "internalType": "bytes4",
          "name": "",
          "type": "bytes4"
        }
      ],
      "stateMutability": "pure",
      "type": "function"
    },
    {
      "inputs": [],
      "name": "toggleMint",
      "outputs": [],
      "stateMutability": "nonpayable",
      "type": "function"
    },
    {
      "inputs": [
        {
          "internalType": "address",
          "name": "newOwner_",
          "type": "address"
        }
      ],
      "name": "transferCollectionOwnership",
      "outputs": [],
      "stateMutability": "nonpayable",
      "type": "function"
    },
    {
      "inputs": [
        {
          "internalType": "address",
          "name": "_proposedGovernor",
          "type": "address"
        }
      ],
      "name": "transferGovernorship",
      "outputs": [],
      "stateMutability": "nonpayable",
      "type": "function"
    },
    {
      "inputs": [
        {
          "internalType": "string",
          "name": "baseURI_",
          "type": "string"
        }
      ],
      "name": "updateBaseURI",
      "outputs": [],
      "stateMutability": "nonpayable",
      "type": "function"
    },
    {
      "inputs": [
        {
          "internalType": "address",
          "name": "metamaster_",
          "type": "address"
        }
      ],
      "name": "updateMetamaster",
      "outputs": [],
      "stateMutability": "nonpayable",
      "type": "function"
    },
    {
      "inputs": [
        {
          "internalType": "address",
          "name": "royaltyReceiver_",
          "type": "address"
        },
        {
          "internalType": "uint256",
          "name": "royaltyRate_",
          "type": "uint256"
        }
      ],
      "name": "updateRoyaltyConfig",
      "outputs": [],
      "stateMutability": "nonpayable",
      "type": "function"
    }
  ],
  "transactionHash": "0xc9d49f791c6f6d409f7c87e306e30f00f1dc6a21ad76d2b698b32a2cd352b639",
  "args": [
    "0x1b41F57D52FE6dB3a63bceB4E8845c0F9F31f859"
  ],
  "numDeployments": 1,
  "solcInputHash": "532df4bc8cdfd44b16d9414589ac0429",
  "bytecode": "0x60a0604052670de0b6b3a76400006033556040516200233238038062002332833981810160405281019062000035919062000193565b6000620000476200012160201b60201c565b905080600060026101000a81548173ffffffffffffffffffffffffffffffffffffffff021916908373ffffffffffffffffffffffffffffffffffffffff1602179055508073ffffffffffffffffffffffffffffffffffffffff16600073ffffffffffffffffffffffffffffffffffffffff167fd4459d5b8b913cab0244230fd9b1c08b6ceace7fe9230e60d0f74cbffdf849d060405160405180910390a3508073ffffffffffffffffffffffffffffffffffffffff1660808173ffffffffffffffffffffffffffffffffffffffff168152505050620001c5565b600033905090565b600080fd5b600073ffffffffffffffffffffffffffffffffffffffff82169050919050565b60006200015b826200012e565b9050919050565b6200016d816200014e565b81146200017957600080fd5b50565b6000815190506200018d8162000162565b92915050565b600060208284031215620001ac57620001ab62000129565b5b6000620001bc848285016200017c565b91505092915050565b60805161210b62000227600039600081816104a10152818161064401528181610858015281816108d101528181610901015281816109c001528181610b2901528181610c5101528181610ef701528181610ff7015261142a015261210b6000f3fe60806040526004361061011f5760003560e01c80638d5cdc26116100a0578063c86f12d311610064578063c86f12d31461037c578063cae86ac9146103a7578063d3dd5fe0146103b1578063f3b27bc3146103c8578063fce12644146103df5761011f565b80638d5cdc26146102ab578063931688cb146102d45780639d248630146102fd578063b2ba4f9c14610328578063b6aa515b146103535761011f565b8063346de50a116100e7578063346de50a146101ea578063447a9f831461021557806344ea49511461022c57806358032084146102575780637641e6f3146102825761011f565b806304dad9351461012457806305c427b71461014d5780630c340a24146101785780631249c58b146101a3578063150b7a02146101ad575b600080fd5b34801561013057600080fd5b5061014b60048036038101906101469190611530565b610408565b005b34801561015957600080fd5b5061016261052d565b60405161016f91906115bc565b60405180910390f35b34801561018457600080fd5b5061018d610545565b60405161019a91906115e6565b60405180910390f35b6101ab61056b565b005b3480156101b957600080fd5b506101d460048036038101906101cf919061169c565b6106f9565b6040516101e1919061175f565b60405180910390f35b3480156101f657600080fd5b506101ff61070e565b60405161020c9190611795565b60405180910390f35b34801561022157600080fd5b5061022a610721565b005b34801561023857600080fd5b506102416108c9565b60405161024e91906117bf565b60405180910390f35b34801561026357600080fd5b5061026c6108cf565b60405161027991906117fb565b60405180910390f35b34801561028e57600080fd5b506102a960048036038101906102a49190611957565b6108f3565b005b3480156102b757600080fd5b506102d260048036038101906102cd91906119b3565b610a90565b005b3480156102e057600080fd5b506102fb60048036038101906102f691906119f3565b610bb8565b005b34801561030957600080fd5b50610312610cdd565b60405161031f9190611a58565b60405180910390f35b34801561033457600080fd5b5061033d610ce2565b60405161034a9190611a94565b60405180910390f35b34801561035f57600080fd5b5061037a60048036038101906103759190611530565b610cfa565b005b34801561038857600080fd5b50610391610e44565b60405161039e9190611a58565b60405180910390f35b6103af610e49565b005b3480156103bd57600080fd5b506103c66110ac565b005b3480156103d457600080fd5b506103dd6111b5565b005b3480156103eb57600080fd5b5061040660048036038101906104019190611530565b611391565b005b6104106114b6565b73ffffffffffffffffffffffffffffffffffffffff16600060029054906101000a900473ffffffffffffffffffffffffffffffffffffffff1673ffffffffffffffffffffffffffffffffffffffff161461049f576040517f08c379a000000000000000000000000000000000000000000000000000000000815260040161049690611b0c565b60405180910390fd5b7f000000000000000000000000000000000000000000000000000000000000000073ffffffffffffffffffffffffffffffffffffffff1663f2fde38b826040518263ffffffff1660e01b81526004016104f891906115e6565b600060405180830381600087803b15801561051257600080fd5b505af1158015610526573d6000803e3d6000fd5b5050505050565b734ced59c19f1f3a9eebd670f746b737acf504d1eb81565b600060029054906101000a900473ffffffffffffffffffffffffffffffffffffffff1681565b603460009054906101000a900460ff166105ba576040517f08c379a00000000000000000000000000000000000000000000000000000000081526004016105b190611b78565b60405180910390fd5b60335434146105fe576040517f08c379a00000000000000000000000000000000000000000000000000000000081526004016105f590611be4565b60405180910390fd5b60006106086114b6565b905073b8cf4a28da322598fdb78a1406a61b72d6f6b39673ffffffffffffffffffffffffffffffffffffffff1663d7e954e466038d7ea4c680007f0000000000000000000000000000000000000000000000000000000000000000846040518463ffffffff1660e01b8152600401610681929190611c2a565b6000604051808303818588803b15801561069a57600080fd5b505af11580156106ae573d6000803e3d6000fd5b50505050508073ffffffffffffffffffffffffffffffffffffffff167f21aec557fe1c218e78259203357e235779aa30e2a146ff9e877cb0be5be75f3260405160405180910390a250565b600063150b7a0260e01b905095945050505050565b603460009054906101000a900460ff1681565b6107296114b6565b73ffffffffffffffffffffffffffffffffffffffff16600060029054906101000a900473ffffffffffffffffffffffffffffffffffffffff1673ffffffffffffffffffffffffffffffffffffffff16146107b8576040517f08c379a00000000000000000000000000000000000000000000000000000000081526004016107af90611b0c565b60405180910390fd5b73b8cf4a28da322598fdb78a1406a61b72d6f6b39673ffffffffffffffffffffffffffffffffffffffff1663c45a01556040518163ffffffff1660e01b8152600401602060405180830381865afa158015610817573d6000803e3d6000fd5b505050506040513d601f19601f8201168201806040525081019061083b9190611ca4565b73ffffffffffffffffffffffffffffffffffffffff166377394a0b7f0000000000000000000000000000000000000000000000000000000000000000306040518363ffffffff1660e01b8152600401610895929190611cd1565b600060405180830381600087803b1580156108af57600080fd5b505af11580156108c3573d6000803e3d6000fd5b50505050565b60335481565b7f000000000000000000000000000000000000000000000000000000000000000081565b60006108fd6114b6565b90507f000000000000000000000000000000000000000000000000000000000000000073ffffffffffffffffffffffffffffffffffffffff166342842e0e8230866040518463ffffffff1660e01b815260040161095c93929190611cfa565b600060405180830381600087803b15801561097657600080fd5b505af115801561098a573d6000803e3d6000fd5b5050505073b8cf4a28da322598fdb78a1406a61b72d6f6b39673ffffffffffffffffffffffffffffffffffffffff1663aee6a2fe7f000000000000000000000000000000000000000000000000000000000000000085306040518463ffffffff1660e01b81526004016109ff93929190611d31565b600060405180830381600087803b158015610a1957600080fd5b505af1158015610a2d573d6000803e3d6000fd5b5050505081604051610a3f9190611de2565b6040518091039020838273ffffffffffffffffffffffffffffffffffffffff167f25371875ba959ab9f2b46353b3767d7e9f16f0c7958f87995f4fd8b490da715460405160405180910390a4505050565b610a986114b6565b73ffffffffffffffffffffffffffffffffffffffff16600060029054906101000a900473ffffffffffffffffffffffffffffffffffffffff1673ffffffffffffffffffffffffffffffffffffffff1614610b27576040517f08c379a0000000000000000000000000000000000000000000000000000000008152600401610b1e90611b0c565b60405180910390fd5b7f000000000000000000000000000000000000000000000000000000000000000073ffffffffffffffffffffffffffffffffffffffff16638d5cdc2683836040518363ffffffff1660e01b8152600401610b82929190611df9565b600060405180830381600087803b158015610b9c57600080fd5b505af1158015610bb0573d6000803e3d6000fd5b505050505050565b610bc06114b6565b73ffffffffffffffffffffffffffffffffffffffff16600060029054906101000a900473ffffffffffffffffffffffffffffffffffffffff1673ffffffffffffffffffffffffffffffffffffffff1614610c4f576040517f08c379a0000000000000000000000000000000000000000000000000000000008152600401610c4690611b0c565b60405180910390fd5b7f000000000000000000000000000000000000000000000000000000000000000073ffffffffffffffffffffffffffffffffffffffff166355f804b3826040518263ffffffff1660e01b8152600401610ca89190611e5b565b600060405180830381600087803b158015610cc257600080fd5b505af1158015610cd6573d6000803e3d6000fd5b5050505050565b601081565b73b8cf4a28da322598fdb78a1406a61b72d6f6b39681565b610d026114b6565b73ffffffffffffffffffffffffffffffffffffffff16600060029054906101000a900473ffffffffffffffffffffffffffffffffffffffff1673ffffffffffffffffffffffffffffffffffffffff1614610d91576040517f08c379a0000000000000000000000000000000000000000000000000000000008152600401610d8890611b0c565b60405180910390fd5b600073ffffffffffffffffffffffffffffffffffffffff168173ffffffffffffffffffffffffffffffffffffffff1603610e00576040517f08c379a0000000000000000000000000000000000000000000000000000000008152600401610df790611ec9565b60405180910390fd5b80600160006101000a81548173ffffffffffffffffffffffffffffffffffffffff021916908373ffffffffffffffffffffffffffffffffffffffff16021790555050565b601081565b6000610e536114b6565b9050600060029054906101000a900473ffffffffffffffffffffffffffffffffffffffff1673ffffffffffffffffffffffffffffffffffffffff168173ffffffffffffffffffffffffffffffffffffffff1614610ee5576040517f08c379a0000000000000000000000000000000000000000000000000000000008152600401610edc90611f35565b60405180910390fd5b601080610ef29190611f84565b60ff167f000000000000000000000000000000000000000000000000000000000000000073ffffffffffffffffffffffffffffffffffffffff166361bc221a6040518163ffffffff1660e01b8152600401602060405180830381865afa158015610f60573d6000803e3d6000fd5b505050506040513d601f19601f82011682018060405250810190610f849190611fd0565b10610fc4576040517f08c379a0000000000000000000000000000000000000000000000000000000008152600401610fbb90612049565b60405180910390fd5b73b8cf4a28da322598fdb78a1406a61b72d6f6b39673ffffffffffffffffffffffffffffffffffffffff1663d7e954e4347f0000000000000000000000000000000000000000000000000000000000000000846040518463ffffffff1660e01b8152600401611034929190611c2a565b6000604051808303818588803b15801561104d57600080fd5b505af1158015611061573d6000803e3d6000fd5b50505050508073ffffffffffffffffffffffffffffffffffffffff167f21aec557fe1c218e78259203357e235779aa30e2a146ff9e877cb0be5be75f3260405160405180910390a250565b6110b46114b6565b73ffffffffffffffffffffffffffffffffffffffff16600060029054906101000a900473ffffffffffffffffffffffffffffffffffffffff1673ffffffffffffffffffffffffffffffffffffffff1614611143576040517f08c379a000000000000000000000000000000000000000000000000000000000815260040161113a90611b0c565b60405180910390fd5b603460009054906101000a900460ff1615603460006101000a81548160ff0219169083151502179055507f8ba9af8fef251a59a57bb383a518ff12b3c2770c23cf0ab9a59a9e2390e08f43603460009054906101000a900460ff166040516111ab9190611795565b60405180910390a1565b6111bd6114b6565b73ffffffffffffffffffffffffffffffffffffffff16600160009054906101000a900473ffffffffffffffffffffffffffffffffffffffff1673ffffffffffffffffffffffffffffffffffffffff161461124c576040517f08c379a0000000000000000000000000000000000000000000000000000000008152600401611243906120b5565b60405180910390fd5b600160009054906101000a900473ffffffffffffffffffffffffffffffffffffffff1673ffffffffffffffffffffffffffffffffffffffff16600060029054906101000a900473ffffffffffffffffffffffffffffffffffffffff1673ffffffffffffffffffffffffffffffffffffffff167fd4459d5b8b913cab0244230fd9b1c08b6ceace7fe9230e60d0f74cbffdf849d060405160405180910390a3600160009054906101000a900473ffffffffffffffffffffffffffffffffffffffff16600060026101000a81548173ffffffffffffffffffffffffffffffffffffffff021916908373ffffffffffffffffffffffffffffffffffffffff1602179055506000600160006101000a81548173ffffffffffffffffffffffffffffffffffffffff021916908373ffffffffffffffffffffffffffffffffffffffff160217905550565b6113996114b6565b73ffffffffffffffffffffffffffffffffffffffff16600060029054906101000a900473ffffffffffffffffffffffffffffffffffffffff1673ffffffffffffffffffffffffffffffffffffffff1614611428576040517f08c379a000000000000000000000000000000000000000000000000000000000815260040161141f90611b0c565b60405180910390fd5b7f000000000000000000000000000000000000000000000000000000000000000073ffffffffffffffffffffffffffffffffffffffff16631b86f18c826040518263ffffffff1660e01b815260040161148191906115e6565b600060405180830381600087803b15801561149b57600080fd5b505af11580156114af573d6000803e3d6000fd5b5050505050565b600033905090565b6000604051905090565b600080fd5b600080fd5b600073ffffffffffffffffffffffffffffffffffffffff82169050919050565b60006114fd826114d2565b9050919050565b61150d816114f2565b811461151857600080fd5b50565b60008135905061152a81611504565b92915050565b600060208284031215611546576115456114c8565b5b60006115548482850161151b565b91505092915050565b6000819050919050565b600061158261157d611578846114d2565b61155d565b6114d2565b9050919050565b600061159482611567565b9050919050565b60006115a682611589565b9050919050565b6115b68161159b565b82525050565b60006020820190506115d160008301846115ad565b92915050565b6115e0816114f2565b82525050565b60006020820190506115fb60008301846115d7565b92915050565b6000819050919050565b61161481611601565b811461161f57600080fd5b50565b6000813590506116318161160b565b92915050565b600080fd5b600080fd5b600080fd5b60008083601f84011261165c5761165b611637565b5b8235905067ffffffffffffffff8111156116795761167861163c565b5b60208301915083600182028301111561169557611694611641565b5b9250929050565b6000806000806000608086880312156116b8576116b76114c8565b5b60006116c68882890161151b565b95505060206116d78882890161151b565b94505060406116e888828901611622565b935050606086013567ffffffffffffffff811115611709576117086114cd565b5b61171588828901611646565b92509250509295509295909350565b60007fffffffff0000000000000000000000000000000000000000000000000000000082169050919050565b61175981611724565b82525050565b60006020820190506117746000830184611750565b92915050565b60008115159050919050565b61178f8161177a565b82525050565b60006020820190506117aa6000830184611786565b92915050565b6117b981611601565b82525050565b60006020820190506117d460008301846117b0565b92915050565b60006117e582611589565b9050919050565b6117f5816117da565b82525050565b600060208201905061181060008301846117ec565b92915050565b600080fd5b6000601f19601f8301169050919050565b7f4e487b7100000000000000000000000000000000000000000000000000000000600052604160045260246000fd5b6118648261181b565b810181811067ffffffffffffffff821117156118835761188261182c565b5b80604052505050565b60006118966114be565b90506118a2828261185b565b919050565b600067ffffffffffffffff8211156118c2576118c161182c565b5b6118cb8261181b565b9050602081019050919050565b82818337600083830152505050565b60006118fa6118f5846118a7565b61188c565b90508281526020810184848401111561191657611915611816565b5b6119218482856118d8565b509392505050565b600082601f83011261193e5761193d611637565b5b813561194e8482602086016118e7565b91505092915050565b6000806040838503121561196e5761196d6114c8565b5b600061197c85828601611622565b925050602083013567ffffffffffffffff81111561199d5761199c6114cd565b5b6119a985828601611929565b9150509250929050565b600080604083850312156119ca576119c96114c8565b5b60006119d88582860161151b565b92505060206119e985828601611622565b9150509250929050565b600060208284031215611a0957611a086114c8565b5b600082013567ffffffffffffffff811115611a2757611a266114cd565b5b611a3384828501611929565b91505092915050565b600060ff82169050919050565b611a5281611a3c565b82525050565b6000602082019050611a6d6000830184611a49565b92915050565b6000611a7e82611589565b9050919050565b611a8e81611a73565b82525050565b6000602082019050611aa96000830184611a85565b92915050565b600082825260208201905092915050565b7f6e6f7420676f7665726e6f720000000000000000000000000000000000000000600082015250565b6000611af6600c83611aaf565b9150611b0182611ac0565b602082019050919050565b60006020820190508181036000830152611b2581611ae9565b9050919050565b7f6d696e742d69732d6e6f742d656e61626c656400000000000000000000000000600082015250565b6000611b62601383611aaf565b9150611b6d82611b2c565b602082019050919050565b60006020820190508181036000830152611b9181611b55565b9050919050565b7f77726f6e672d6d696e742d6665652d7061696400000000000000000000000000600082015250565b6000611bce601383611aaf565b9150611bd982611b98565b602082019050919050565b60006020820190508181036000830152611bfd81611bc1565b9050919050565b50565b6000611c14600083611aaf565b9150611c1f82611c04565b600082019050919050565b6000606082019050611c3f60008301856115d7565b8181036020830152611c5081611c07565b9050611c5f60408301846115d7565b9392505050565b6000611c71826114f2565b9050919050565b611c8181611c66565b8114611c8c57600080fd5b50565b600081519050611c9e81611c78565b92915050565b600060208284031215611cba57611cb96114c8565b5b6000611cc884828501611c8f565b91505092915050565b6000604082019050611ce660008301856115d7565b611cf360208301846115d7565b9392505050565b6000606082019050611d0f60008301866115d7565b611d1c60208301856115d7565b611d2960408301846117b0565b949350505050565b6000606082019050611d4660008301866115d7565b611d5360208301856117b0565b611d6060408301846115d7565b949350505050565b600081519050919050565b600081905092915050565b60005b83811015611d9c578082015181840152602081019050611d81565b83811115611dab576000848401525b50505050565b6000611dbc82611d68565b611dc68185611d73565b9350611dd6818560208601611d7e565b80840191505092915050565b6000611dee8284611db1565b915081905092915050565b6000604082019050611e0e60008301856115d7565b611e1b60208301846117b0565b9392505050565b6000611e2d82611d68565b611e378185611aaf565b9350611e47818560208601611d7e565b611e508161181b565b840191505092915050565b60006020820190508181036000830152611e758184611e22565b905092915050565b7f696e76616c69642070726f706f73656420676f7665726e6f7200000000000000600082015250565b6000611eb3601983611aaf565b9150611ebe82611e7d565b602082019050919050565b60006020820190508181036000830152611ee281611ea6565b9050919050565b7f6e6f742d676f7665726e6f720000000000000000000000000000000000000000600082015250565b6000611f1f600c83611aaf565b9150611f2a82611ee9565b602082019050919050565b60006020820190508181036000830152611f4e81611f12565b9050919050565b7f4e487b7100000000000000000000000000000000000000000000000000000000600052601160045260246000fd5b6000611f8f82611a3c565b9150611f9a83611a3c565b92508260ff03821115611fb057611faf611f55565b5b828201905092915050565b600081519050611fca8161160b565b92915050565b600060208284031215611fe657611fe56114c8565b5b6000611ff484828501611fbb565b91505092915050565b7f676f7665726e6f722d6d696e742d706572696f642d6f76657200000000000000600082015250565b6000612033601983611aaf565b915061203e82611ffd565b602082019050919050565b6000602082019050818103600083015261206281612026565b9050919050565b7f6e6f74207468652070726f706f73656420676f7665726e6f7200000000000000600082015250565b600061209f601983611aaf565b91506120aa82612069565b602082019050919050565b600060208201905081810360008301526120ce81612092565b905091905056fea2646970667358221220d7e7ba67096b1daa38ecdaaa6ad7f8b05a0b50d6c9ee561f90603b06661767f864736f6c634300080f0033",
  "devdoc": {
    "kind": "dev",
    "methods": {
      "acceptGovernorship()": {
        "details": "Allows new governor to accept governorship of the contract."
      },
      "burn(uint256,string)": {
        "params": {
          "btcAddress": "the address on Bitcoin which will recieve the corresponding OO",
          "id_": "OO id to burn"
        }
      },
      "onERC721Received(address,address,uint256,bytes)": {
        "details": "This function enables this contract to receive ERC721 tokens"
      },
      "transferCollectionOwnership(address)": {
        "params": {
          "newOwner_": "Address of new owner"
        }
      },
      "transferGovernorship(address)": {
        "details": "Transfers governorship of the contract to a new account (`proposedGovernor`). Can only be called by the current governor."
      },
      "updateBaseURI(string)": {
        "params": {
          "baseURI_": "New baseURI string"
        }
      },
      "updateMetamaster(address)": {
        "params": {
          "metamaster_": "Address of new metamaster"
        }
      },
      "updateRoyaltyConfig(address,uint256)": {
        "params": {
          "royaltyRate_": "Royalty rate in Basis Points. ie. 100 = 1%, 10_000 = 100%",
          "royaltyReceiver_": "Address of royalty receiver"
        }
      }
    },
    "title": "OrdinaryOranges",
    "version": 1
  },
  "userdoc": {
    "kind": "user",
    "methods": {
      "OOMintFee()": {
        "notice": "Mint Fee"
      },
      "TEAM_MINT()": {
        "notice": "Team and giveaway mints"
      },
      "burn(uint256,string)": {
        "notice": "Burn an OO"
      },
      "claimCollectionBurnerRole()": {
        "notice": "Update collection burner. Add self address as collection burner for OO"
      },
      "governorMint()": {
        "notice": "Governor Mint"
      },
      "isMintEnabled()": {
        "notice": "Flag indicating whether the OO mint is enabled."
      },
      "mint()": {
        "notice": "Mint an Ordinary Orange to caller address"
      },
      "toggleMint()": {
        "notice": "onlyGovernor:: Toggle minting status of the Ordinary Oranges"
      },
      "transferCollectionOwnership(address)": {
        "notice": "onlyGovernor:: Transfer ownership of the Ordinary Oranges collection"
      },
      "updateBaseURI(string)": {
        "notice": "onlyGovernor:: Set the collection baseURI"
      },
      "updateMetamaster(address)": {
        "notice": "onlyGovernor:: Transfer metamaster of the Ordinary Oranges collection"
      },
      "updateRoyaltyConfig(address,uint256)": {
        "notice": "onlyGovernor:: Update royalty receiver and rate in Ordinary Oranges collection"
      }
    },
    "version": 1
  },
  "storageLayout": {
    "storage": [
      {
        "astId": 25,
        "contract": "contracts/OrdinaryOranges.sol:OrdinaryOranges",
        "label": "_initialized",
        "offset": 0,
        "slot": "0",
        "type": "t_uint8"
      },
      {
        "astId": 28,
        "contract": "contracts/OrdinaryOranges.sol:OrdinaryOranges",
        "label": "_initializing",
        "offset": 1,
        "slot": "0",
        "type": "t_bool"
      },
      {
        "astId": 966,
        "contract": "contracts/OrdinaryOranges.sol:OrdinaryOranges",
        "label": "governor",
        "offset": 2,
        "slot": "0",
        "type": "t_address"
      },
      {
        "astId": 968,
        "contract": "contracts/OrdinaryOranges.sol:OrdinaryOranges",
        "label": "proposedGovernor",
        "offset": 0,
        "slot": "1",
        "type": "t_address"
      },
      {
        "astId": 1090,
        "contract": "contracts/OrdinaryOranges.sol:OrdinaryOranges",
        "label": "__gap",
        "offset": 0,
        "slot": "2",
        "type": "t_array(t_uint256)49_storage"
      },
      {
        "astId": 669,
        "contract": "contracts/OrdinaryOranges.sol:OrdinaryOranges",
        "label": "OOMintFee",
        "offset": 0,
        "slot": "51",
        "type": "t_uint256"
      },
      {
        "astId": 672,
        "contract": "contracts/OrdinaryOranges.sol:OrdinaryOranges",
        "label": "isMintEnabled",
        "offset": 0,
        "slot": "52",
        "type": "t_bool"
      }
    ],
    "types": {
      "t_address": {
        "encoding": "inplace",
        "label": "address",
        "numberOfBytes": "20"
      },
      "t_array(t_uint256)49_storage": {
        "base": "t_uint256",
        "encoding": "inplace",
        "label": "uint256[49]",
        "numberOfBytes": "1568"
      },
      "t_bool": {
        "encoding": "inplace",
        "label": "bool",
        "numberOfBytes": "1"
      },
      "t_uint256": {
        "encoding": "inplace",
        "label": "uint256",
        "numberOfBytes": "32"
      },
      "t_uint8": {
        "encoding": "inplace",
        "label": "uint8",
        "numberOfBytes": "1"
      }
    }
  }
}